{
  "contractName": "RecogToken",
  "abi": [
    {
      "inputs": [],
      "stateMutability": "nonpayable",
      "type": "constructor"
    },
    {
      "anonymous": false,
      "inputs": [
        {
          "indexed": true,
          "internalType": "address",
          "name": "owner",
          "type": "address"
        },
        {
          "indexed": true,
          "internalType": "address",
          "name": "approved",
          "type": "address"
        },
        {
          "indexed": true,
          "internalType": "uint256",
          "name": "tokenId",
          "type": "uint256"
        }
      ],
      "name": "Approval",
      "type": "event"
    },
    {
      "anonymous": false,
      "inputs": [
        {
          "indexed": true,
          "internalType": "address",
          "name": "owner",
          "type": "address"
        },
        {
          "indexed": true,
          "internalType": "address",
          "name": "operator",
          "type": "address"
        },
        {
          "indexed": false,
          "internalType": "bool",
          "name": "approved",
          "type": "bool"
        }
      ],
      "name": "ApprovalForAll",
      "type": "event"
    },
    {
      "anonymous": false,
      "inputs": [
        {
          "indexed": true,
          "internalType": "address",
          "name": "from",
          "type": "address"
        },
        {
          "indexed": true,
          "internalType": "address",
          "name": "to",
          "type": "address"
        },
        {
          "indexed": true,
          "internalType": "uint256",
          "name": "tokenId",
          "type": "uint256"
        }
      ],
      "name": "Transfer",
      "type": "event"
    },
    {
      "stateMutability": "payable",
      "type": "fallback",
      "payable": true
    },
    {
      "inputs": [
        {
          "internalType": "address",
          "name": "to",
          "type": "address"
        },
        {
          "internalType": "uint256",
          "name": "tokenId",
          "type": "uint256"
        }
      ],
      "name": "approve",
      "outputs": [],
      "stateMutability": "nonpayable",
      "type": "function"
    },
    {
      "inputs": [
        {
          "internalType": "address",
          "name": "owner",
          "type": "address"
        }
      ],
      "name": "balanceOf",
      "outputs": [
        {
          "internalType": "uint256",
          "name": "",
          "type": "uint256"
        }
      ],
      "stateMutability": "view",
      "type": "function",
      "constant": true
    },
    {
      "inputs": [
        {
          "internalType": "uint256",
          "name": "tokenId",
          "type": "uint256"
        }
      ],
      "name": "getApproved",
      "outputs": [
        {
          "internalType": "address",
          "name": "",
          "type": "address"
        }
      ],
      "stateMutability": "view",
      "type": "function",
      "constant": true
    },
    {
      "inputs": [
        {
          "internalType": "address",
          "name": "owner",
          "type": "address"
        },
        {
          "internalType": "address",
          "name": "operator",
          "type": "address"
        }
      ],
      "name": "isApprovedForAll",
      "outputs": [
        {
          "internalType": "bool",
          "name": "",
          "type": "bool"
        }
      ],
      "stateMutability": "view",
      "type": "function",
      "constant": true
    },
    {
      "inputs": [
        {
          "internalType": "address",
          "name": "",
          "type": "address"
        }
      ],
      "name": "minterRole",
      "outputs": [
        {
          "internalType": "bool",
          "name": "",
          "type": "bool"
        }
      ],
      "stateMutability": "view",
      "type": "function",
      "constant": true
    },
    {
      "inputs": [],
      "name": "name",
      "outputs": [
        {
          "internalType": "string",
          "name": "",
          "type": "string"
        }
      ],
      "stateMutability": "view",
      "type": "function",
      "constant": true
    },
    {
      "inputs": [
        {
          "internalType": "uint256",
          "name": "tokenId",
          "type": "uint256"
        }
      ],
      "name": "ownerOf",
      "outputs": [
        {
          "internalType": "address",
          "name": "",
          "type": "address"
        }
      ],
      "stateMutability": "view",
      "type": "function",
      "constant": true
    },
    {
      "inputs": [
        {
          "internalType": "address",
          "name": "from",
          "type": "address"
        },
        {
          "internalType": "address",
          "name": "to",
          "type": "address"
        },
        {
          "internalType": "uint256",
          "name": "tokenId",
          "type": "uint256"
        }
      ],
      "name": "safeTransferFrom",
      "outputs": [],
      "stateMutability": "nonpayable",
      "type": "function"
    },
    {
      "inputs": [
        {
          "internalType": "address",
          "name": "from",
          "type": "address"
        },
        {
          "internalType": "address",
          "name": "to",
          "type": "address"
        },
        {
          "internalType": "uint256",
          "name": "tokenId",
          "type": "uint256"
        },
        {
          "internalType": "bytes",
          "name": "_data",
          "type": "bytes"
        }
      ],
      "name": "safeTransferFrom",
      "outputs": [],
      "stateMutability": "nonpayable",
      "type": "function"
    },
    {
      "inputs": [
        {
          "internalType": "address",
          "name": "operator",
          "type": "address"
        },
        {
          "internalType": "bool",
          "name": "approved",
          "type": "bool"
        }
      ],
      "name": "setApprovalForAll",
      "outputs": [],
      "stateMutability": "nonpayable",
      "type": "function"
    },
    {
      "inputs": [
        {
          "internalType": "bytes4",
          "name": "interfaceId",
          "type": "bytes4"
        }
      ],
      "name": "supportsInterface",
      "outputs": [
        {
          "internalType": "bool",
          "name": "",
          "type": "bool"
        }
      ],
      "stateMutability": "view",
      "type": "function",
      "constant": true
    },
    {
      "inputs": [],
      "name": "symbol",
      "outputs": [
        {
          "internalType": "string",
          "name": "",
          "type": "string"
        }
      ],
      "stateMutability": "view",
      "type": "function",
      "constant": true
    },
    {
      "inputs": [
        {
          "internalType": "address",
          "name": "from",
          "type": "address"
        },
        {
          "internalType": "address",
          "name": "to",
          "type": "address"
        },
        {
          "internalType": "uint256",
          "name": "tokenId",
          "type": "uint256"
        }
      ],
      "name": "transferFrom",
      "outputs": [],
      "stateMutability": "nonpayable",
      "type": "function"
    },
    {
      "stateMutability": "payable",
      "type": "receive",
      "payable": true
    },
    {
      "inputs": [
        {
          "internalType": "address",
          "name": "_account",
          "type": "address"
        }
      ],
      "name": "getMinterRole",
      "outputs": [
        {
          "internalType": "bool",
          "name": "",
          "type": "bool"
        }
      ],
      "stateMutability": "view",
      "type": "function",
      "constant": true
    },
    {
      "inputs": [
        {
          "internalType": "address",
          "name": "_minter",
          "type": "address"
        }
      ],
      "name": "addMinter",
      "outputs": [],
      "stateMutability": "payable",
      "type": "function",
      "payable": true
    },
    {
      "inputs": [
        {
          "internalType": "address",
          "name": "_minter",
          "type": "address"
        }
      ],
      "name": "removeMinter",
      "outputs": [],
      "stateMutability": "nonpayable",
      "type": "function"
    },
    {
      "inputs": [
        {
          "internalType": "address",
          "name": "to",
          "type": "address"
        },
        {
          "internalType": "string",
          "name": "uri",
          "type": "string"
        }
      ],
      "name": "safeMint",
      "outputs": [],
      "stateMutability": "nonpayable",
      "type": "function"
    },
    {
      "inputs": [],
      "name": "withdraw",
      "outputs": [],
      "stateMutability": "nonpayable",
      "type": "function"
    },
    {
      "inputs": [
        {
          "internalType": "uint256",
          "name": "tokenId",
          "type": "uint256"
        }
      ],
      "name": "tokenURI",
      "outputs": [
        {
          "internalType": "string",
          "name": "",
          "type": "string"
        }
      ],
      "stateMutability": "view",
      "type": "function",
      "constant": true
    }
  ],
  "bytecode": "0x608060405233600860006101000a81548173ffffffffffffffffffffffffffffffffffffffff021916908373ffffffffffffffffffffffffffffffffffffffff1602179055503480156200005257600080fd5b506040518060400160405280600a81526020017f5265636f67546f6b656e000000000000000000000000000000000000000000008152506040518060400160405280600381526020017f52435400000000000000000000000000000000000000000000000000000000008152508160009080519060200190620000d7929190620000f9565b508060019080519060200190620000f0929190620000f9565b5050506200020e565b8280546200010790620001a9565b90600052602060002090601f0160209004810192826200012b576000855562000177565b82601f106200014657805160ff191683800117855562000177565b8280016001018555821562000177579182015b828111156200017657825182559160200191906001019062000159565b5b5090506200018691906200018a565b5090565b5b80821115620001a55760008160009055506001016200018b565b5090565b60006002820490506001821680620001c257607f821691505b60208210811415620001d957620001d8620001df565b5b50919050565b7f4e487b7100000000000000000000000000000000000000000000000000000000600052602260045260246000fd5b613447806200021e6000396000f3fe6080604052600436106101185760003560e01c80636352211e116100a0578063ad0e7d8c11610064578063ad0e7d8c146103a8578063b88d4fde146103e5578063c87b56dd1461040e578063d204c45e1461044b578063e985e9c5146104745761011f565b80636352211e146102be57806370a08231146102fb57806395d89b4114610338578063983b2d5614610363578063a22cb4651461037f5761011f565b806323b872dd116100e757806323b872dd146101ef5780633092afd5146102185780633ccfd60b1461024157806342842e0e1461025857806358dda898146102815761011f565b806301ffc9a71461012157806306fdde031461015e578063081812fc14610189578063095ea7b3146101c65761011f565b3661011f57005b005b34801561012d57600080fd5b50610148600480360381019061014391906122d8565b6104b1565b60405161015591906127a2565b60405180910390f35b34801561016a57600080fd5b50610173610593565b60405161018091906127bd565b60405180910390f35b34801561019557600080fd5b506101b060048036038101906101ab919061232a565b610625565b6040516101bd919061273b565b60405180910390f35b3480156101d257600080fd5b506101ed60048036038101906101e8919061229c565b6106aa565b005b3480156101fb57600080fd5b5061021660048036038101906102119190612142565b6107c2565b005b34801561022457600080fd5b5061023f600480360381019061023a91906120dd565b610822565b005b34801561024d57600080fd5b50610256610914565b005b34801561026457600080fd5b5061027f600480360381019061027a9190612142565b610a75565b005b34801561028d57600080fd5b506102a860048036038101906102a391906120dd565b610a95565b6040516102b591906127a2565b60405180910390f35b3480156102ca57600080fd5b506102e560048036038101906102e0919061232a565b610aeb565b6040516102f2919061273b565b60405180910390f35b34801561030757600080fd5b50610322600480360381019061031d91906120dd565b610b9d565b60405161032f9190612a5f565b60405180910390f35b34801561034457600080fd5b5061034d610c55565b60405161035a91906127bd565b60405180910390f35b61037d600480360381019061037891906120dd565b610ce7565b005b34801561038b57600080fd5b506103a660048036038101906103a1919061220c565b610e23565b005b3480156103b457600080fd5b506103cf60048036038101906103ca91906120dd565b610fa4565b6040516103dc91906127a2565b60405180910390f35b3480156103f157600080fd5b5061040c60048036038101906104079190612191565b610fc4565b005b34801561041a57600080fd5b506104356004803603810190610430919061232a565b611026565b60405161044291906127bd565b60405180910390f35b34801561045757600080fd5b50610472600480360381019061046d9190612248565b611038565b005b34801561048057600080fd5b5061049b60048036038101906104969190612106565b6110f5565b6040516104a891906127a2565b60405180910390f35b60007f80ac58cd000000000000000000000000000000000000000000000000000000007bffffffffffffffffffffffffffffffffffffffffffffffffffffffff1916827bffffffffffffffffffffffffffffffffffffffffffffffffffffffff1916148061057c57507f5b5e139f000000000000000000000000000000000000000000000000000000007bffffffffffffffffffffffffffffffffffffffffffffffffffffffff1916827bffffffffffffffffffffffffffffffffffffffffffffffffffffffff1916145b8061058c575061058b82611189565b5b9050919050565b6060600080546105a290612cc0565b80601f01602080910402602001604051908101604052809291908181526020018280546105ce90612cc0565b801561061b5780601f106105f05761010080835404028352916020019161061b565b820191906000526020600020905b8154815290600101906020018083116105fe57829003601f168201915b5050505050905090565b6000610630826111f3565b61066f576040517f08c379a00000000000000000000000000000000000000000000000000000000081526004016106669061295f565b60405180910390fd5b6004600083815260200190815260200160002060009054906101000a900473ffffffffffffffffffffffffffffffffffffffff169050919050565b60006106b582610aeb565b90508073ffffffffffffffffffffffffffffffffffffffff168373ffffffffffffffffffffffffffffffffffffffff161415610726576040517f08c379a000000000000000000000000000000000000000000000000000000000815260040161071d906129ff565b60405180910390fd5b8073ffffffffffffffffffffffffffffffffffffffff1661074561125f565b73ffffffffffffffffffffffffffffffffffffffff16148061077457506107738161076e61125f565b6110f5565b5b6107b3576040517f08c379a00000000000000000000000000000000000000000000000000000000081526004016107aa9061289f565b60405180910390fd5b6107bd8383611267565b505050565b6107d36107cd61125f565b82611320565b610812576040517f08c379a000000000000000000000000000000000000000000000000000000000815260040161080990612a1f565b60405180910390fd5b61081d8383836113fe565b505050565b600073ffffffffffffffffffffffffffffffffffffffff168173ffffffffffffffffffffffffffffffffffffffff16141561085c57600080fd5b60011515600960008373ffffffffffffffffffffffffffffffffffffffff1673ffffffffffffffffffffffffffffffffffffffff16815260200190815260200160002060009054906101000a900460ff161515146108b957600080fd5b6000600960008373ffffffffffffffffffffffffffffffffffffffff1673ffffffffffffffffffffffffffffffffffffffff16815260200190815260200160002060006101000a81548160ff02191690831515021790555050565b600860009054906101000a900473ffffffffffffffffffffffffffffffffffffffff1673ffffffffffffffffffffffffffffffffffffffff163373ffffffffffffffffffffffffffffffffffffffff16146109a4576040517f08c379a000000000000000000000000000000000000000000000000000000000815260040161099b9061287f565b60405180910390fd5b6000600860009054906101000a900473ffffffffffffffffffffffffffffffffffffffff1673ffffffffffffffffffffffffffffffffffffffff16476040516109ec90612726565b60006040518083038185875af1925050503d8060008114610a29576040519150601f19603f3d011682016040523d82523d6000602084013e610a2e565b606091505b5050905080610a72576040517f08c379a0000000000000000000000000000000000000000000000000000000008152600401610a6990612a3f565b60405180910390fd5b50565b610a9083838360405180602001604052806000815250610fc4565b505050565b6000600960008373ffffffffffffffffffffffffffffffffffffffff1673ffffffffffffffffffffffffffffffffffffffff16815260200190815260200160002060009054906101000a900460ff169050919050565b6000806002600084815260200190815260200160002060009054906101000a900473ffffffffffffffffffffffffffffffffffffffff169050600073ffffffffffffffffffffffffffffffffffffffff168173ffffffffffffffffffffffffffffffffffffffff161415610b94576040517f08c379a0000000000000000000000000000000000000000000000000000000008152600401610b8b906128df565b60405180910390fd5b80915050919050565b60008073ffffffffffffffffffffffffffffffffffffffff168273ffffffffffffffffffffffffffffffffffffffff161415610c0e576040517f08c379a0000000000000000000000000000000000000000000000000000000008152600401610c05906128bf565b60405180910390fd5b600360008373ffffffffffffffffffffffffffffffffffffffff1673ffffffffffffffffffffffffffffffffffffffff168152602001908152602001600020549050919050565b606060018054610c6490612cc0565b80601f0160208091040260200160405190810160405280929190818152602001828054610c9090612cc0565b8015610cdd5780601f10610cb257610100808354040283529160200191610cdd565b820191906000526020600020905b815481529060010190602001808311610cc057829003601f168201915b5050505050905090565b66038d7ea4c68000341015610d31576040517f08c379a0000000000000000000000000000000000000000000000000000000008152600401610d289061297f565b60405180910390fd5b600073ffffffffffffffffffffffffffffffffffffffff168173ffffffffffffffffffffffffffffffffffffffff161415610d6b57600080fd5b60001515600960008373ffffffffffffffffffffffffffffffffffffffff1673ffffffffffffffffffffffffffffffffffffffff16815260200190815260200160002060009054906101000a900460ff16151514610dc857600080fd5b6001600960008373ffffffffffffffffffffffffffffffffffffffff1673ffffffffffffffffffffffffffffffffffffffff16815260200190815260200160002060006101000a81548160ff02191690831515021790555050565b610e2b61125f565b73ffffffffffffffffffffffffffffffffffffffff168273ffffffffffffffffffffffffffffffffffffffff161415610e99576040517f08c379a0000000000000000000000000000000000000000000000000000000008152600401610e909061283f565b60405180910390fd5b8060056000610ea661125f565b73ffffffffffffffffffffffffffffffffffffffff1673ffffffffffffffffffffffffffffffffffffffff16815260200190815260200160002060008473ffffffffffffffffffffffffffffffffffffffff1673ffffffffffffffffffffffffffffffffffffffff16815260200190815260200160002060006101000a81548160ff0219169083151502179055508173ffffffffffffffffffffffffffffffffffffffff16610f5361125f565b73ffffffffffffffffffffffffffffffffffffffff167f17307eab39ab6107e8899845ad3d59bd9653f200f220920489ca2b5937696c3183604051610f9891906127a2565b60405180910390a35050565b60096020528060005260406000206000915054906101000a900460ff1681565b610fd5610fcf61125f565b83611320565b611014576040517f08c379a000000000000000000000000000000000000000000000000000000000815260040161100b90612a1f565b60405180910390fd5b6110208484848461165a565b50505050565b6060611031826116b6565b9050919050565b600960008373ffffffffffffffffffffffffffffffffffffffff1673ffffffffffffffffffffffffffffffffffffffff16815260200190815260200160002060009054906101000a900460ff166110c4576040517f08c379a00000000000000000000000000000000000000000000000000000000081526004016110bb906129df565b60405180910390fd5b60006110d06007611808565b90506110dc6007611816565b6110e6838261182c565b6110f0818361184a565b505050565b6000600560008473ffffffffffffffffffffffffffffffffffffffff1673ffffffffffffffffffffffffffffffffffffffff16815260200190815260200160002060008373ffffffffffffffffffffffffffffffffffffffff1673ffffffffffffffffffffffffffffffffffffffff16815260200190815260200160002060009054906101000a900460ff16905092915050565b60007f01ffc9a7000000000000000000000000000000000000000000000000000000007bffffffffffffffffffffffffffffffffffffffffffffffffffffffff1916827bffffffffffffffffffffffffffffffffffffffffffffffffffffffff1916149050919050565b60008073ffffffffffffffffffffffffffffffffffffffff166002600084815260200190815260200160002060009054906101000a900473ffffffffffffffffffffffffffffffffffffffff1673ffffffffffffffffffffffffffffffffffffffff1614159050919050565b600033905090565b816004600083815260200190815260200160002060006101000a81548173ffffffffffffffffffffffffffffffffffffffff021916908373ffffffffffffffffffffffffffffffffffffffff160217905550808273ffffffffffffffffffffffffffffffffffffffff166112da83610aeb565b73ffffffffffffffffffffffffffffffffffffffff167f8c5be1e5ebec7d5bd14f71427d1e84f3dd0314c0f7b2291e5b200ac8c7c3b92560405160405180910390a45050565b600061132b826111f3565b61136a576040517f08c379a00000000000000000000000000000000000000000000000000000000081526004016113619061285f565b60405180910390fd5b600061137583610aeb565b90508073ffffffffffffffffffffffffffffffffffffffff168473ffffffffffffffffffffffffffffffffffffffff1614806113e457508373ffffffffffffffffffffffffffffffffffffffff166113cc84610625565b73ffffffffffffffffffffffffffffffffffffffff16145b806113f557506113f481856110f5565b5b91505092915050565b8273ffffffffffffffffffffffffffffffffffffffff1661141e82610aeb565b73ffffffffffffffffffffffffffffffffffffffff1614611474576040517f08c379a000000000000000000000000000000000000000000000000000000000815260040161146b9061299f565b60405180910390fd5b600073ffffffffffffffffffffffffffffffffffffffff168273ffffffffffffffffffffffffffffffffffffffff1614156114e4576040517f08c379a00000000000000000000000000000000000000000000000000000000081526004016114db9061281f565b60405180910390fd5b6114ef8383836118be565b6114fa600082611267565b6001600360008573ffffffffffffffffffffffffffffffffffffffff1673ffffffffffffffffffffffffffffffffffffffff168152602001908152602001600020600082825461154a9190612bd6565b925050819055506001600360008473ffffffffffffffffffffffffffffffffffffffff1673ffffffffffffffffffffffffffffffffffffffff16815260200190815260200160002060008282546115a19190612b4f565b92505081905550816002600083815260200190815260200160002060006101000a81548173ffffffffffffffffffffffffffffffffffffffff021916908373ffffffffffffffffffffffffffffffffffffffff160217905550808273ffffffffffffffffffffffffffffffffffffffff168473ffffffffffffffffffffffffffffffffffffffff167fddf252ad1be2c89b69c2b068fc378daa952ba7f163c4a11628f55a4df523b3ef60405160405180910390a4505050565b6116658484846113fe565b611671848484846118c3565b6116b0576040517f08c379a00000000000000000000000000000000000000000000000000000000081526004016116a7906127df565b60405180910390fd5b50505050565b60606116c1826111f3565b611700576040517f08c379a00000000000000000000000000000000000000000000000000000000081526004016116f79061293f565b60405180910390fd5b600060066000848152602001908152602001600020805461172090612cc0565b80601f016020809104026020016040519081016040528092919081815260200182805461174c90612cc0565b80156117995780601f1061176e57610100808354040283529160200191611799565b820191906000526020600020905b81548152906001019060200180831161177c57829003601f168201915b5050505050905060006117aa611a5a565b90506000815114156117c0578192505050611803565b6000825111156117f55780826040516020016117dd929190612702565b60405160208183030381529060405292505050611803565b6117fe84611a71565b925050505b919050565b600081600001549050919050565b6001816000016000828254019250508190555050565b611846828260405180602001604052806000815250611b18565b5050565b611853826111f3565b611892576040517f08c379a0000000000000000000000000000000000000000000000000000000008152600401611889906128ff565b60405180910390fd5b806006600084815260200190815260200160002090805190602001906118b9929190611f01565b505050565b505050565b60006118e48473ffffffffffffffffffffffffffffffffffffffff16611b73565b15611a4d578373ffffffffffffffffffffffffffffffffffffffff1663150b7a0261190d61125f565b8786866040518563ffffffff1660e01b815260040161192f9493929190612756565b602060405180830381600087803b15801561194957600080fd5b505af192505050801561197a57506040513d601f19601f820116820180604052508101906119779190612301565b60015b6119fd573d80600081146119aa576040519150601f19603f3d011682016040523d82523d6000602084013e6119af565b606091505b506000815114156119f5576040517f08c379a00000000000000000000000000000000000000000000000000000000081526004016119ec906127df565b60405180910390fd5b805181602001fd5b63150b7a0260e01b7bffffffffffffffffffffffffffffffffffffffffffffffffffffffff1916817bffffffffffffffffffffffffffffffffffffffffffffffffffffffff191614915050611a52565b600190505b949350505050565b606060405180602001604052806000815250905090565b6060611a7c826111f3565b611abb576040517f08c379a0000000000000000000000000000000000000000000000000000000008152600401611ab2906129bf565b60405180910390fd5b6000611ac5611a5a565b90506000815111611ae55760405180602001604052806000815250611b10565b80611aef84611b86565b604051602001611b00929190612702565b6040516020818303038152906040525b915050919050565b611b228383611d33565b611b2f60008484846118c3565b611b6e576040517f08c379a0000000000000000000000000000000000000000000000000000000008152600401611b65906127df565b60405180910390fd5b505050565b600080823b905060008111915050919050565b60606000821415611bce576040518060400160405280600181526020017f30000000000000000000000000000000000000000000000000000000000000008152509050611d2e565b600082905060005b60008214611c00578080611be990612d23565b915050600a82611bf99190612ba5565b9150611bd6565b60008167ffffffffffffffff811115611c42577f4e487b7100000000000000000000000000000000000000000000000000000000600052604160045260246000fd5b6040519080825280601f01601f191660200182016040528015611c745781602001600182028036833780820191505090505b5090505b60008514611d2757600182611c8d9190612bd6565b9150600a85611c9c9190612d6c565b6030611ca89190612b4f565b60f81b818381518110611ce4577f4e487b7100000000000000000000000000000000000000000000000000000000600052603260045260246000fd5b60200101907effffffffffffffffffffffffffffffffffffffffffffffffffffffffffffff1916908160001a905350600a85611d209190612ba5565b9450611c78565b8093505050505b919050565b600073ffffffffffffffffffffffffffffffffffffffff168273ffffffffffffffffffffffffffffffffffffffff161415611da3576040517f08c379a0000000000000000000000000000000000000000000000000000000008152600401611d9a9061291f565b60405180910390fd5b611dac816111f3565b15611dec576040517f08c379a0000000000000000000000000000000000000000000000000000000008152600401611de3906127ff565b60405180910390fd5b611df8600083836118be565b6001600360008473ffffffffffffffffffffffffffffffffffffffff1673ffffffffffffffffffffffffffffffffffffffff1681526020019081526020016000206000828254611e489190612b4f565b92505081905550816002600083815260200190815260200160002060006101000a81548173ffffffffffffffffffffffffffffffffffffffff021916908373ffffffffffffffffffffffffffffffffffffffff160217905550808273ffffffffffffffffffffffffffffffffffffffff16600073ffffffffffffffffffffffffffffffffffffffff167fddf252ad1be2c89b69c2b068fc378daa952ba7f163c4a11628f55a4df523b3ef60405160405180910390a45050565b828054611f0d90612cc0565b90600052602060002090601f016020900481019282611f2f5760008555611f76565b82601f10611f4857805160ff1916838001178555611f76565b82800160010185558215611f76579182015b82811115611f75578251825591602001919060010190611f5a565b5b509050611f839190611f87565b5090565b5b80821115611fa0576000816000905550600101611f88565b5090565b6000611fb7611fb284612a9f565b612a7a565b905082815260208101848484011115611fcf57600080fd5b611fda848285612c7e565b509392505050565b6000611ff5611ff084612ad0565b612a7a565b90508281526020810184848401111561200d57600080fd5b612018848285612c7e565b509392505050565b60008135905061202f816133b5565b92915050565b600081359050612044816133cc565b92915050565b600081359050612059816133e3565b92915050565b60008151905061206e816133e3565b92915050565b600082601f83011261208557600080fd5b8135612095848260208601611fa4565b91505092915050565b600082601f8301126120af57600080fd5b81356120bf848260208601611fe2565b91505092915050565b6000813590506120d7816133fa565b92915050565b6000602082840312156120ef57600080fd5b60006120fd84828501612020565b91505092915050565b6000806040838503121561211957600080fd5b600061212785828601612020565b925050602061213885828601612020565b9150509250929050565b60008060006060848603121561215757600080fd5b600061216586828701612020565b935050602061217686828701612020565b9250506040612187868287016120c8565b9150509250925092565b600080600080608085870312156121a757600080fd5b60006121b587828801612020565b94505060206121c687828801612020565b93505060406121d7878288016120c8565b925050606085013567ffffffffffffffff8111156121f457600080fd5b61220087828801612074565b91505092959194509250565b6000806040838503121561221f57600080fd5b600061222d85828601612020565b925050602061223e85828601612035565b9150509250929050565b6000806040838503121561225b57600080fd5b600061226985828601612020565b925050602083013567ffffffffffffffff81111561228657600080fd5b6122928582860161209e565b9150509250929050565b600080604083850312156122af57600080fd5b60006122bd85828601612020565b92505060206122ce858286016120c8565b9150509250929050565b6000602082840312156122ea57600080fd5b60006122f88482850161204a565b91505092915050565b60006020828403121561231357600080fd5b60006123218482850161205f565b91505092915050565b60006020828403121561233c57600080fd5b600061234a848285016120c8565b91505092915050565b61235c81612c0a565b82525050565b61236b81612c1c565b82525050565b600061237c82612b01565b6123868185612b17565b9350612396818560208601612c8d565b61239f81612e59565b840191505092915050565b60006123b582612b0c565b6123bf8185612b33565b93506123cf818560208601612c8d565b6123d881612e59565b840191505092915050565b60006123ee82612b0c565b6123f88185612b44565b9350612408818560208601612c8d565b80840191505092915050565b6000612421603283612b33565b915061242c82612e6a565b604082019050919050565b6000612444601c83612b33565b915061244f82612eb9565b602082019050919050565b6000612467602483612b33565b915061247282612ee2565b604082019050919050565b600061248a601983612b33565b915061249582612f31565b602082019050919050565b60006124ad602c83612b33565b91506124b882612f5a565b604082019050919050565b60006124d0601783612b33565b91506124db82612fa9565b602082019050919050565b60006124f3603883612b33565b91506124fe82612fd2565b604082019050919050565b6000612516602a83612b33565b915061252182613021565b604082019050919050565b6000612539602983612b33565b915061254482613070565b604082019050919050565b600061255c602e83612b33565b9150612567826130bf565b604082019050919050565b600061257f602083612b33565b915061258a8261310e565b602082019050919050565b60006125a2603183612b33565b91506125ad82613137565b604082019050919050565b60006125c5602c83612b33565b91506125d082613186565b604082019050919050565b60006125e8602d83612b33565b91506125f3826131d5565b604082019050919050565b600061260b602983612b33565b915061261682613224565b604082019050919050565b600061262e602f83612b33565b915061263982613273565b604082019050919050565b6000612651601b83612b33565b915061265c826132c2565b602082019050919050565b6000612674602183612b33565b915061267f826132eb565b604082019050919050565b6000612697600083612b28565b91506126a28261333a565b600082019050919050565b60006126ba603183612b33565b91506126c58261333d565b604082019050919050565b60006126dd601183612b33565b91506126e88261338c565b602082019050919050565b6126fc81612c74565b82525050565b600061270e82856123e3565b915061271a82846123e3565b91508190509392505050565b60006127318261268a565b9150819050919050565b60006020820190506127506000830184612353565b92915050565b600060808201905061276b6000830187612353565b6127786020830186612353565b61278560408301856126f3565b81810360608301526127978184612371565b905095945050505050565b60006020820190506127b76000830184612362565b92915050565b600060208201905081810360008301526127d781846123aa565b905092915050565b600060208201905081810360008301526127f881612414565b9050919050565b6000602082019050818103600083015261281881612437565b9050919050565b600060208201905081810360008301526128388161245a565b9050919050565b600060208201905081810360008301526128588161247d565b9050919050565b60006020820190508181036000830152612878816124a0565b9050919050565b60006020820190508181036000830152612898816124c3565b9050919050565b600060208201905081810360008301526128b8816124e6565b9050919050565b600060208201905081810360008301526128d881612509565b9050919050565b600060208201905081810360008301526128f88161252c565b9050919050565b600060208201905081810360008301526129188161254f565b9050919050565b6000602082019050818103600083015261293881612572565b9050919050565b6000602082019050818103600083015261295881612595565b9050919050565b60006020820190508181036000830152612978816125b8565b9050919050565b60006020820190508181036000830152612998816125db565b9050919050565b600060208201905081810360008301526129b8816125fe565b9050919050565b600060208201905081810360008301526129d881612621565b9050919050565b600060208201905081810360008301526129f881612644565b9050919050565b60006020820190508181036000830152612a1881612667565b9050919050565b60006020820190508181036000830152612a38816126ad565b9050919050565b60006020820190508181036000830152612a58816126d0565b9050919050565b6000602082019050612a7460008301846126f3565b92915050565b6000612a84612a95565b9050612a908282612cf2565b919050565b6000604051905090565b600067ffffffffffffffff821115612aba57612ab9612e2a565b5b612ac382612e59565b9050602081019050919050565b600067ffffffffffffffff821115612aeb57612aea612e2a565b5b612af482612e59565b9050602081019050919050565b600081519050919050565b600081519050919050565b600082825260208201905092915050565b600081905092915050565b600082825260208201905092915050565b600081905092915050565b6000612b5a82612c74565b9150612b6583612c74565b9250827fffffffffffffffffffffffffffffffffffffffffffffffffffffffffffffffff03821115612b9a57612b99612d9d565b5b828201905092915050565b6000612bb082612c74565b9150612bbb83612c74565b925082612bcb57612bca612dcc565b5b828204905092915050565b6000612be182612c74565b9150612bec83612c74565b925082821015612bff57612bfe612d9d565b5b828203905092915050565b6000612c1582612c54565b9050919050565b60008115159050919050565b60007fffffffff0000000000000000000000000000000000000000000000000000000082169050919050565b600073ffffffffffffffffffffffffffffffffffffffff82169050919050565b6000819050919050565b82818337600083830152505050565b60005b83811015612cab578082015181840152602081019050612c90565b83811115612cba576000848401525b50505050565b60006002820490506001821680612cd857607f821691505b60208210811415612cec57612ceb612dfb565b5b50919050565b612cfb82612e59565b810181811067ffffffffffffffff82111715612d1a57612d19612e2a565b5b80604052505050565b6000612d2e82612c74565b91507fffffffffffffffffffffffffffffffffffffffffffffffffffffffffffffffff821415612d6157612d60612d9d565b5b600182019050919050565b6000612d7782612c74565b9150612d8283612c74565b925082612d9257612d91612dcc565b5b828206905092915050565b7f4e487b7100000000000000000000000000000000000000000000000000000000600052601160045260246000fd5b7f4e487b7100000000000000000000000000000000000000000000000000000000600052601260045260246000fd5b7f4e487b7100000000000000000000000000000000000000000000000000000000600052602260045260246000fd5b7f4e487b7100000000000000000000000000000000000000000000000000000000600052604160045260246000fd5b6000601f19601f8301169050919050565b7f4552433732313a207472616e7366657220746f206e6f6e20455243373231526560008201527f63656976657220696d706c656d656e7465720000000000000000000000000000602082015250565b7f4552433732313a20746f6b656e20616c7265616479206d696e74656400000000600082015250565b7f4552433732313a207472616e7366657220746f20746865207a65726f2061646460008201527f7265737300000000000000000000000000000000000000000000000000000000602082015250565b7f4552433732313a20617070726f766520746f2063616c6c657200000000000000600082015250565b7f4552433732313a206f70657261746f7220717565727920666f72206e6f6e657860008201527f697374656e7420746f6b656e0000000000000000000000000000000000000000602082015250565b7f4f6e6c79206f776e65722063616e207769746864726177000000000000000000600082015250565b7f4552433732313a20617070726f76652063616c6c6572206973206e6f74206f7760008201527f6e6572206e6f7220617070726f76656420666f7220616c6c0000000000000000602082015250565b7f4552433732313a2062616c616e636520717565727920666f7220746865207a6560008201527f726f206164647265737300000000000000000000000000000000000000000000602082015250565b7f4552433732313a206f776e657220717565727920666f72206e6f6e657869737460008201527f656e7420746f6b656e0000000000000000000000000000000000000000000000602082015250565b7f45524337323155524953746f726167653a2055524920736574206f66206e6f6e60008201527f6578697374656e7420746f6b656e000000000000000000000000000000000000602082015250565b7f4552433732313a206d696e7420746f20746865207a65726f2061646472657373600082015250565b7f45524337323155524953746f726167653a2055524920717565727920666f722060008201527f6e6f6e6578697374656e7420746f6b656e000000000000000000000000000000602082015250565b7f4552433732313a20617070726f76656420717565727920666f72206e6f6e657860008201527f697374656e7420746f6b656e0000000000000000000000000000000000000000602082015250565b7f706179206174206c6561737420302e3030312065746820746f207369676e207560008201527f702061732061206d696e74657200000000000000000000000000000000000000602082015250565b7f4552433732313a207472616e73666572206f6620746f6b656e2074686174206960008201527f73206e6f74206f776e0000000000000000000000000000000000000000000000602082015250565b7f4552433732314d657461646174613a2055524920717565727920666f72206e6f60008201527f6e6578697374656e7420746f6b656e0000000000000000000000000000000000602082015250565b7f4f6e6c79206d696e7465722063616e206d696e7420746f6b656e730000000000600082015250565b7f4552433732313a20617070726f76616c20746f2063757272656e74206f776e6560008201527f7200000000000000000000000000000000000000000000000000000000000000602082015250565b50565b7f4552433732313a207472616e736665722063616c6c6572206973206e6f74206f60008201527f776e6572206e6f7220617070726f766564000000000000000000000000000000602082015250565b7f5769746864726177616c206661696c6564000000000000000000000000000000600082015250565b6133be81612c0a565b81146133c957600080fd5b50565b6133d581612c1c565b81146133e057600080fd5b50565b6133ec81612c28565b81146133f757600080fd5b50565b61340381612c74565b811461340e57600080fd5b5056fea26469706673582212208b7c1e542b4cb1437e098e3c7dd0fc5ab6e4e6b1c7b73e22fe659139658671d164736f6c63430008020033",
  "immutableReferences": {},
  "source": "// SPDX-License-Identifier: MIT\npragma solidity 0.8.2;\n\n/// @title A contract for allowing users to mint their own NFTs\n/// @author Luke Younge Nov 2021\n/// @notice This contract is meant for the Consensys academoy final project\n\nimport \"@openzeppelin/contracts/token/ERC721/ERC721.sol\";\nimport \"@openzeppelin/contracts/token/ERC721/extensions/ERC721URIStorage.sol\";\nimport \"@openzeppelin/contracts/utils/Counters.sol\";\n\n/// contract RecogToken is ERC721, ERC721URIStorage \ncontract RecogToken is ERC721, ERC721URIStorage {\n    using Counters for Counters.Counter;\n    Counters.Counter private _tokenIdCounter;\n\n    address owner = msg.sender;\n\n    /// @dev this role is used to grant access to the mint function\n    /// @notice creates a role for minting tokens\n    mapping(address => bool) public minterRole;\n\n    /// @notice a simple getter function to query an account's role\n    /// @param _account the account to query\n    function getMinterRole(address _account) public view returns (bool) {\n        return minterRole[_account];\n    }\n\n    /// @notice function to add a new minter, with paying 0.001 ether\n    /// @param _minter the account to add as a minter\n    function addMinter(address _minter) public payable {\n        require(msg.value >= 1000000000000000, \"pay at least 0.001 eth to sign up as a minter\");\n        require(_minter != address(0));\n        require(minterRole[_minter] == false);\n        minterRole[_minter] = true;\n    }\n\n    /// @notice a function to remove a minter, not currently used\n    /// @param _minter the account to remove as a minter\n    function removeMinter(address _minter) public {\n        require(_minter != address(0));\n        require(minterRole[_minter] == true);\n        minterRole[_minter] = false;\n    }\n\n    /// @notice this is inherited from OpenZeppelin ERC721\n\n    function _baseURI() internal pure override returns (string memory) {\n        return \"\";\n    }\n\n    /// @dev receive and fallback so the contract can receive data and messages and not be destroyed\n    receive() external payable {\n    }\n\n    fallback() external payable {\n    }\n\n    /// @dev constructor for the RecogToken contract\n    constructor() ERC721(\"RecogToken\", \"RCT\") {}\n    \n    \n    /// @dev this function creates the tokenId and mints the token to the msg.sender\n    /// @param uri the URI of the token\n    /// @param to the address to mint the token to\n    function safeMint(address to, string memory uri) public {\n        require( minterRole[to], \"Only minter can mint tokens\" );\n        uint256 tokenId = _tokenIdCounter.current();\n        _tokenIdCounter.increment();\n        _safeMint(to, tokenId);\n        _setTokenURI(tokenId, uri);\n    }\n\n    /// @dev Function to withdraw ether from contract address\n    /// @notice only the owner can withdraw ether\n    function withdraw() public {\n        require(msg.sender == owner, \"Only owner can withdraw\");\n        (bool success, ) = owner.call{value: address(this).balance}(\"\");\n        require(success, \"Withdrawal failed\");\n    }\n\n    /// @dev The following function is an override required by Solidity, and recommeded by OpenZeppelin\n    function _burn(uint256 tokenId) internal override(ERC721, ERC721URIStorage) {\n        super._burn(tokenId);\n    }\n    /// @dev The following function is an override required by Solidity, and recommeded by OpenZeppelin\n    /// @return tokenId\n    function tokenURI(uint256 tokenId)\n        public\n        view\n        override(ERC721, ERC721URIStorage)\n        returns (string memory)\n    {\n        return super.tokenURI(tokenId);\n    }\n}",
  "sourcePath": "/Users/lukeyounge/Sites/tokenmint-ipfs/contracts/RecogToken.sol",
  "compiler": {
    "name": "solc",
    "version": "0.8.2+commit.661d1103.Emscripten.clang"
  },
  "schemaVersion": "3.4.3",
  "updatedAt": "2021-11-30T10:46:49.768Z",
  "networkType": "ethereum",
  "devdoc": {
    "kind": "dev",
    "methods": {
      "addMinter(address)": {
        "params": {
          "_minter": "the account to add as a minter"
        }
      },
      "approve(address,uint256)": {
        "details": "See {IERC721-approve}."
      },
      "balanceOf(address)": {
        "details": "See {IERC721-balanceOf}."
      },
      "constructor": {
        "details": "constructor for the RecogToken contract"
      },
      "getApproved(uint256)": {
        "details": "See {IERC721-getApproved}."
      },
      "getMinterRole(address)": {
        "params": {
          "_account": "the account to query"
        }
      },
      "isApprovedForAll(address,address)": {
        "details": "See {IERC721-isApprovedForAll}."
      },
      "name()": {
        "details": "See {IERC721Metadata-name}."
      },
      "ownerOf(uint256)": {
        "details": "See {IERC721-ownerOf}."
      },
      "removeMinter(address)": {
        "params": {
          "_minter": "the account to remove as a minter"
        }
      },
      "safeMint(address,string)": {
        "details": "this function creates the tokenId and mints the token to the msg.sender",
        "params": {
          "to": "the address to mint the token to",
          "uri": "the URI of the token"
        }
      },
      "safeTransferFrom(address,address,uint256)": {
        "details": "See {IERC721-safeTransferFrom}."
      },
      "safeTransferFrom(address,address,uint256,bytes)": {
        "details": "See {IERC721-safeTransferFrom}."
      },
      "setApprovalForAll(address,bool)": {
        "details": "See {IERC721-setApprovalForAll}."
      },
      "supportsInterface(bytes4)": {
        "details": "See {IERC165-supportsInterface}."
      },
      "symbol()": {
        "details": "See {IERC721Metadata-symbol}."
      },
      "tokenURI(uint256)": {
        "details": "The following function is an override required by Solidity, and recommeded by OpenZeppelin",
        "returns": {
          "_0": "tokenId"
        }
      },
      "transferFrom(address,address,uint256)": {
        "details": "See {IERC721-transferFrom}."
      },
      "withdraw()": {
        "details": "Function to withdraw ether from contract address"
      }
    },
    "stateVariables": {
      "minterRole": {
        "details": "this role is used to grant access to the mint function"
      }
    },
    "version": 1
  },
  "userdoc": {
    "kind": "user",
    "methods": {
      "addMinter(address)": {
        "notice": "function to add a new minter, with paying 0.001 ether"
      },
      "getMinterRole(address)": {
        "notice": "a simple getter function to query an account's role"
      },
      "minterRole(address)": {
        "notice": "creates a role for minting tokens"
      },
      "removeMinter(address)": {
        "notice": "a function to remove a minter, not currently used"
      },
      "withdraw()": {
        "notice": "only the owner can withdraw ether"
      }
    },
    "notice": "contract RecogToken is ERC721, ERC721URIStorage ",
    "version": 1
  }
}