{
  "contractName": "RecogToken",
  "abi": [
    {
      "inputs": [],
      "stateMutability": "nonpayable",
      "type": "constructor"
    },
    {
      "anonymous": false,
      "inputs": [
        {
          "indexed": true,
          "internalType": "address",
          "name": "owner",
          "type": "address"
        },
        {
          "indexed": true,
          "internalType": "address",
          "name": "approved",
          "type": "address"
        },
        {
          "indexed": true,
          "internalType": "uint256",
          "name": "tokenId",
          "type": "uint256"
        }
      ],
      "name": "Approval",
      "type": "event"
    },
    {
      "anonymous": false,
      "inputs": [
        {
          "indexed": true,
          "internalType": "address",
          "name": "owner",
          "type": "address"
        },
        {
          "indexed": true,
          "internalType": "address",
          "name": "operator",
          "type": "address"
        },
        {
          "indexed": false,
          "internalType": "bool",
          "name": "approved",
          "type": "bool"
        }
      ],
      "name": "ApprovalForAll",
      "type": "event"
    },
    {
      "anonymous": false,
      "inputs": [
        {
          "indexed": true,
          "internalType": "address",
          "name": "from",
          "type": "address"
        },
        {
          "indexed": true,
          "internalType": "address",
          "name": "to",
          "type": "address"
        },
        {
          "indexed": true,
          "internalType": "uint256",
          "name": "tokenId",
          "type": "uint256"
        }
      ],
      "name": "Transfer",
      "type": "event"
    },
    {
      "inputs": [
        {
          "internalType": "address",
          "name": "to",
          "type": "address"
        },
        {
          "internalType": "uint256",
          "name": "tokenId",
          "type": "uint256"
        }
      ],
      "name": "approve",
      "outputs": [],
      "stateMutability": "nonpayable",
      "type": "function"
    },
    {
      "inputs": [
        {
          "internalType": "address",
          "name": "owner",
          "type": "address"
        }
      ],
      "name": "balanceOf",
      "outputs": [
        {
          "internalType": "uint256",
          "name": "",
          "type": "uint256"
        }
      ],
      "stateMutability": "view",
      "type": "function",
      "constant": true
    },
    {
      "inputs": [
        {
          "internalType": "uint256",
          "name": "tokenId",
          "type": "uint256"
        }
      ],
      "name": "getApproved",
      "outputs": [
        {
          "internalType": "address",
          "name": "",
          "type": "address"
        }
      ],
      "stateMutability": "view",
      "type": "function",
      "constant": true
    },
    {
      "inputs": [
        {
          "internalType": "address",
          "name": "owner",
          "type": "address"
        },
        {
          "internalType": "address",
          "name": "operator",
          "type": "address"
        }
      ],
      "name": "isApprovedForAll",
      "outputs": [
        {
          "internalType": "bool",
          "name": "",
          "type": "bool"
        }
      ],
      "stateMutability": "view",
      "type": "function",
      "constant": true
    },
    {
      "inputs": [
        {
          "internalType": "address",
          "name": "",
          "type": "address"
        }
      ],
      "name": "minterRole",
      "outputs": [
        {
          "internalType": "bool",
          "name": "",
          "type": "bool"
        }
      ],
      "stateMutability": "view",
      "type": "function",
      "constant": true
    },
    {
      "inputs": [],
      "name": "name",
      "outputs": [
        {
          "internalType": "string",
          "name": "",
          "type": "string"
        }
      ],
      "stateMutability": "view",
      "type": "function",
      "constant": true
    },
    {
      "inputs": [
        {
          "internalType": "uint256",
          "name": "tokenId",
          "type": "uint256"
        }
      ],
      "name": "ownerOf",
      "outputs": [
        {
          "internalType": "address",
          "name": "",
          "type": "address"
        }
      ],
      "stateMutability": "view",
      "type": "function",
      "constant": true
    },
    {
      "inputs": [
        {
          "internalType": "address",
          "name": "from",
          "type": "address"
        },
        {
          "internalType": "address",
          "name": "to",
          "type": "address"
        },
        {
          "internalType": "uint256",
          "name": "tokenId",
          "type": "uint256"
        }
      ],
      "name": "safeTransferFrom",
      "outputs": [],
      "stateMutability": "nonpayable",
      "type": "function"
    },
    {
      "inputs": [
        {
          "internalType": "address",
          "name": "from",
          "type": "address"
        },
        {
          "internalType": "address",
          "name": "to",
          "type": "address"
        },
        {
          "internalType": "uint256",
          "name": "tokenId",
          "type": "uint256"
        },
        {
          "internalType": "bytes",
          "name": "_data",
          "type": "bytes"
        }
      ],
      "name": "safeTransferFrom",
      "outputs": [],
      "stateMutability": "nonpayable",
      "type": "function"
    },
    {
      "inputs": [
        {
          "internalType": "address",
          "name": "operator",
          "type": "address"
        },
        {
          "internalType": "bool",
          "name": "approved",
          "type": "bool"
        }
      ],
      "name": "setApprovalForAll",
      "outputs": [],
      "stateMutability": "nonpayable",
      "type": "function"
    },
    {
      "inputs": [
        {
          "internalType": "bytes4",
          "name": "interfaceId",
          "type": "bytes4"
        }
      ],
      "name": "supportsInterface",
      "outputs": [
        {
          "internalType": "bool",
          "name": "",
          "type": "bool"
        }
      ],
      "stateMutability": "view",
      "type": "function",
      "constant": true
    },
    {
      "inputs": [],
      "name": "symbol",
      "outputs": [
        {
          "internalType": "string",
          "name": "",
          "type": "string"
        }
      ],
      "stateMutability": "view",
      "type": "function",
      "constant": true
    },
    {
      "inputs": [
        {
          "internalType": "address",
          "name": "from",
          "type": "address"
        },
        {
          "internalType": "address",
          "name": "to",
          "type": "address"
        },
        {
          "internalType": "uint256",
          "name": "tokenId",
          "type": "uint256"
        }
      ],
      "name": "transferFrom",
      "outputs": [],
      "stateMutability": "nonpayable",
      "type": "function"
    },
    {
      "inputs": [
        {
          "internalType": "address",
          "name": "_account",
          "type": "address"
        }
      ],
      "name": "getMinterRole",
      "outputs": [
        {
          "internalType": "bool",
          "name": "",
          "type": "bool"
        }
      ],
      "stateMutability": "view",
      "type": "function",
      "constant": true
    },
    {
      "inputs": [
        {
          "internalType": "address",
          "name": "_minter",
          "type": "address"
        }
      ],
      "name": "addMinter",
      "outputs": [],
      "stateMutability": "payable",
      "type": "function",
      "payable": true
    },
    {
      "inputs": [
        {
          "internalType": "address",
          "name": "_minter",
          "type": "address"
        }
      ],
      "name": "removeMinter",
      "outputs": [],
      "stateMutability": "nonpayable",
      "type": "function"
    },
    {
      "inputs": [
        {
          "internalType": "address",
          "name": "to",
          "type": "address"
        },
        {
          "internalType": "string",
          "name": "uri",
          "type": "string"
        }
      ],
      "name": "safeMint",
      "outputs": [],
      "stateMutability": "nonpayable",
      "type": "function"
    },
    {
      "inputs": [],
      "name": "withdraw",
      "outputs": [],
      "stateMutability": "nonpayable",
      "type": "function"
    },
    {
      "inputs": [
        {
          "internalType": "uint256",
          "name": "tokenId",
          "type": "uint256"
        }
      ],
      "name": "tokenURI",
      "outputs": [
        {
          "internalType": "string",
          "name": "",
          "type": "string"
        }
      ],
      "stateMutability": "view",
      "type": "function",
      "constant": true
    }
  ],
  "bytecode": "0x608060405233600860006101000a81548173ffffffffffffffffffffffffffffffffffffffff021916908373ffffffffffffffffffffffffffffffffffffffff1602179055503480156200005257600080fd5b506040518060400160405280600a81526020017f5265636f67546f6b656e000000000000000000000000000000000000000000008152506040518060400160405280600381526020017f52435400000000000000000000000000000000000000000000000000000000008152508160009080519060200190620000d7929190620000f9565b508060019080519060200190620000f0929190620000f9565b5050506200020e565b8280546200010790620001d8565b90600052602060002090601f0160209004810192826200012b576000855562000177565b82601f106200014657805160ff191683800117855562000177565b8280016001018555821562000177579182015b828111156200017657825182559160200191906001019062000159565b5b5090506200018691906200018a565b5090565b5b80821115620001a55760008160009055506001016200018b565b5090565b7f4e487b7100000000000000000000000000000000000000000000000000000000600052602260045260246000fd5b60006002820490506001821680620001f157607f821691505b60208210811415620002085762000207620001a9565b5b50919050565b61349c806200021e6000396000f3fe6080604052600436106101145760003560e01c80636352211e116100a0578063ad0e7d8c11610064578063ad0e7d8c146103a0578063b88d4fde146103dd578063c87b56dd14610406578063d204c45e14610443578063e985e9c51461046c57610114565b80636352211e146102b657806370a08231146102f357806395d89b4114610330578063983b2d561461035b578063a22cb4651461037757610114565b806323b872dd116100e757806323b872dd146101e75780633092afd5146102105780633ccfd60b1461023957806342842e0e1461025057806358dda8981461027957610114565b806301ffc9a71461011957806306fdde0314610156578063081812fc14610181578063095ea7b3146101be575b600080fd5b34801561012557600080fd5b50610140600480360381019061013b9190611fe2565b6104a9565b60405161014d919061202a565b60405180910390f35b34801561016257600080fd5b5061016b61058b565b60405161017891906120de565b60405180910390f35b34801561018d57600080fd5b506101a860048036038101906101a39190612136565b61061d565b6040516101b591906121a4565b60405180910390f35b3480156101ca57600080fd5b506101e560048036038101906101e091906121eb565b6106a2565b005b3480156101f357600080fd5b5061020e6004803603810190610209919061222b565b6107ba565b005b34801561021c57600080fd5b506102376004803603810190610232919061227e565b61081a565b005b34801561024557600080fd5b5061024e61090c565b005b34801561025c57600080fd5b506102776004803603810190610272919061222b565b610a6d565b005b34801561028557600080fd5b506102a0600480360381019061029b919061227e565b610a8d565b6040516102ad919061202a565b60405180910390f35b3480156102c257600080fd5b506102dd60048036038101906102d89190612136565b610ae3565b6040516102ea91906121a4565b60405180910390f35b3480156102ff57600080fd5b5061031a6004803603810190610315919061227e565b610b95565b60405161032791906122ba565b60405180910390f35b34801561033c57600080fd5b50610345610c4d565b60405161035291906120de565b60405180910390f35b6103756004803603810190610370919061227e565b610cdf565b005b34801561038357600080fd5b5061039e60048036038101906103999190612301565b610e1b565b005b3480156103ac57600080fd5b506103c760048036038101906103c2919061227e565b610f9c565b6040516103d4919061202a565b60405180910390f35b3480156103e957600080fd5b5061040460048036038101906103ff9190612476565b610fbc565b005b34801561041257600080fd5b5061042d60048036038101906104289190612136565b61101e565b60405161043a91906120de565b60405180910390f35b34801561044f57600080fd5b5061046a6004803603810190610465919061259a565b611030565b005b34801561047857600080fd5b50610493600480360381019061048e91906125f6565b6110ed565b6040516104a0919061202a565b60405180910390f35b60007f80ac58cd000000000000000000000000000000000000000000000000000000007bffffffffffffffffffffffffffffffffffffffffffffffffffffffff1916827bffffffffffffffffffffffffffffffffffffffffffffffffffffffff1916148061057457507f5b5e139f000000000000000000000000000000000000000000000000000000007bffffffffffffffffffffffffffffffffffffffffffffffffffffffff1916827bffffffffffffffffffffffffffffffffffffffffffffffffffffffff1916145b80610584575061058382611181565b5b9050919050565b60606000805461059a90612665565b80601f01602080910402602001604051908101604052809291908181526020018280546105c690612665565b80156106135780601f106105e857610100808354040283529160200191610613565b820191906000526020600020905b8154815290600101906020018083116105f657829003601f168201915b5050505050905090565b6000610628826111eb565b610667576040517f08c379a000000000000000000000000000000000000000000000000000000000815260040161065e90612709565b60405180910390fd5b6004600083815260200190815260200160002060009054906101000a900473ffffffffffffffffffffffffffffffffffffffff169050919050565b60006106ad82610ae3565b90508073ffffffffffffffffffffffffffffffffffffffff168373ffffffffffffffffffffffffffffffffffffffff16141561071e576040517f08c379a00000000000000000000000000000000000000000000000000000000081526004016107159061279b565b60405180910390fd5b8073ffffffffffffffffffffffffffffffffffffffff1661073d611257565b73ffffffffffffffffffffffffffffffffffffffff16148061076c575061076b81610766611257565b6110ed565b5b6107ab576040517f08c379a00000000000000000000000000000000000000000000000000000000081526004016107a29061282d565b60405180910390fd5b6107b5838361125f565b505050565b6107cb6107c5611257565b82611318565b61080a576040517f08c379a0000000000000000000000000000000000000000000000000000000008152600401610801906128bf565b60405180910390fd5b6108158383836113f6565b505050565b600073ffffffffffffffffffffffffffffffffffffffff168173ffffffffffffffffffffffffffffffffffffffff16141561085457600080fd5b60011515600960008373ffffffffffffffffffffffffffffffffffffffff1673ffffffffffffffffffffffffffffffffffffffff16815260200190815260200160002060009054906101000a900460ff161515146108b157600080fd5b6000600960008373ffffffffffffffffffffffffffffffffffffffff1673ffffffffffffffffffffffffffffffffffffffff16815260200190815260200160002060006101000a81548160ff02191690831515021790555050565b600860009054906101000a900473ffffffffffffffffffffffffffffffffffffffff1673ffffffffffffffffffffffffffffffffffffffff163373ffffffffffffffffffffffffffffffffffffffff161461099c576040517f08c379a00000000000000000000000000000000000000000000000000000000081526004016109939061292b565b60405180910390fd5b6000600860009054906101000a900473ffffffffffffffffffffffffffffffffffffffff1673ffffffffffffffffffffffffffffffffffffffff16476040516109e49061297c565b60006040518083038185875af1925050503d8060008114610a21576040519150601f19603f3d011682016040523d82523d6000602084013e610a26565b606091505b5050905080610a6a576040517f08c379a0000000000000000000000000000000000000000000000000000000008152600401610a61906129dd565b60405180910390fd5b50565b610a8883838360405180602001604052806000815250610fbc565b505050565b6000600960008373ffffffffffffffffffffffffffffffffffffffff1673ffffffffffffffffffffffffffffffffffffffff16815260200190815260200160002060009054906101000a900460ff169050919050565b6000806002600084815260200190815260200160002060009054906101000a900473ffffffffffffffffffffffffffffffffffffffff169050600073ffffffffffffffffffffffffffffffffffffffff168173ffffffffffffffffffffffffffffffffffffffff161415610b8c576040517f08c379a0000000000000000000000000000000000000000000000000000000008152600401610b8390612a6f565b60405180910390fd5b80915050919050565b60008073ffffffffffffffffffffffffffffffffffffffff168273ffffffffffffffffffffffffffffffffffffffff161415610c06576040517f08c379a0000000000000000000000000000000000000000000000000000000008152600401610bfd90612b01565b60405180910390fd5b600360008373ffffffffffffffffffffffffffffffffffffffff1673ffffffffffffffffffffffffffffffffffffffff168152602001908152602001600020549050919050565b606060018054610c5c90612665565b80601f0160208091040260200160405190810160405280929190818152602001828054610c8890612665565b8015610cd55780601f10610caa57610100808354040283529160200191610cd5565b820191906000526020600020905b815481529060010190602001808311610cb857829003601f168201915b5050505050905090565b66038d7ea4c68000341015610d29576040517f08c379a0000000000000000000000000000000000000000000000000000000008152600401610d2090612b93565b60405180910390fd5b600073ffffffffffffffffffffffffffffffffffffffff168173ffffffffffffffffffffffffffffffffffffffff161415610d6357600080fd5b60001515600960008373ffffffffffffffffffffffffffffffffffffffff1673ffffffffffffffffffffffffffffffffffffffff16815260200190815260200160002060009054906101000a900460ff16151514610dc057600080fd5b6001600960008373ffffffffffffffffffffffffffffffffffffffff1673ffffffffffffffffffffffffffffffffffffffff16815260200190815260200160002060006101000a81548160ff02191690831515021790555050565b610e23611257565b73ffffffffffffffffffffffffffffffffffffffff168273ffffffffffffffffffffffffffffffffffffffff161415610e91576040517f08c379a0000000000000000000000000000000000000000000000000000000008152600401610e8890612bff565b60405180910390fd5b8060056000610e9e611257565b73ffffffffffffffffffffffffffffffffffffffff1673ffffffffffffffffffffffffffffffffffffffff16815260200190815260200160002060008473ffffffffffffffffffffffffffffffffffffffff1673ffffffffffffffffffffffffffffffffffffffff16815260200190815260200160002060006101000a81548160ff0219169083151502179055508173ffffffffffffffffffffffffffffffffffffffff16610f4b611257565b73ffffffffffffffffffffffffffffffffffffffff167f17307eab39ab6107e8899845ad3d59bd9653f200f220920489ca2b5937696c3183604051610f90919061202a565b60405180910390a35050565b60096020528060005260406000206000915054906101000a900460ff1681565b610fcd610fc7611257565b83611318565b61100c576040517f08c379a0000000000000000000000000000000000000000000000000000000008152600401611003906128bf565b60405180910390fd5b61101884848484611652565b50505050565b6060611029826116ae565b9050919050565b600960008373ffffffffffffffffffffffffffffffffffffffff1673ffffffffffffffffffffffffffffffffffffffff16815260200190815260200160002060009054906101000a900460ff166110bc576040517f08c379a00000000000000000000000000000000000000000000000000000000081526004016110b390612c6b565b60405180910390fd5b60006110c86007611800565b90506110d4600761180e565b6110de8382611824565b6110e88183611842565b505050565b6000600560008473ffffffffffffffffffffffffffffffffffffffff1673ffffffffffffffffffffffffffffffffffffffff16815260200190815260200160002060008373ffffffffffffffffffffffffffffffffffffffff1673ffffffffffffffffffffffffffffffffffffffff16815260200190815260200160002060009054906101000a900460ff16905092915050565b60007f01ffc9a7000000000000000000000000000000000000000000000000000000007bffffffffffffffffffffffffffffffffffffffffffffffffffffffff1916827bffffffffffffffffffffffffffffffffffffffffffffffffffffffff1916149050919050565b60008073ffffffffffffffffffffffffffffffffffffffff166002600084815260200190815260200160002060009054906101000a900473ffffffffffffffffffffffffffffffffffffffff1673ffffffffffffffffffffffffffffffffffffffff1614159050919050565b600033905090565b816004600083815260200190815260200160002060006101000a81548173ffffffffffffffffffffffffffffffffffffffff021916908373ffffffffffffffffffffffffffffffffffffffff160217905550808273ffffffffffffffffffffffffffffffffffffffff166112d283610ae3565b73ffffffffffffffffffffffffffffffffffffffff167f8c5be1e5ebec7d5bd14f71427d1e84f3dd0314c0f7b2291e5b200ac8c7c3b92560405160405180910390a45050565b6000611323826111eb565b611362576040517f08c379a000000000000000000000000000000000000000000000000000000000815260040161135990612cfd565b60405180910390fd5b600061136d83610ae3565b90508073ffffffffffffffffffffffffffffffffffffffff168473ffffffffffffffffffffffffffffffffffffffff1614806113dc57508373ffffffffffffffffffffffffffffffffffffffff166113c48461061d565b73ffffffffffffffffffffffffffffffffffffffff16145b806113ed57506113ec81856110ed565b5b91505092915050565b8273ffffffffffffffffffffffffffffffffffffffff1661141682610ae3565b73ffffffffffffffffffffffffffffffffffffffff161461146c576040517f08c379a000000000000000000000000000000000000000000000000000000000815260040161146390612d8f565b60405180910390fd5b600073ffffffffffffffffffffffffffffffffffffffff168273ffffffffffffffffffffffffffffffffffffffff1614156114dc576040517f08c379a00000000000000000000000000000000000000000000000000000000081526004016114d390612e21565b60405180910390fd5b6114e78383836118b6565b6114f260008261125f565b6001600360008573ffffffffffffffffffffffffffffffffffffffff1673ffffffffffffffffffffffffffffffffffffffff16815260200190815260200160002060008282546115429190612e70565b925050819055506001600360008473ffffffffffffffffffffffffffffffffffffffff1673ffffffffffffffffffffffffffffffffffffffff16815260200190815260200160002060008282546115999190612ea4565b92505081905550816002600083815260200190815260200160002060006101000a81548173ffffffffffffffffffffffffffffffffffffffff021916908373ffffffffffffffffffffffffffffffffffffffff160217905550808273ffffffffffffffffffffffffffffffffffffffff168473ffffffffffffffffffffffffffffffffffffffff167fddf252ad1be2c89b69c2b068fc378daa952ba7f163c4a11628f55a4df523b3ef60405160405180910390a4505050565b61165d8484846113f6565b611669848484846118bb565b6116a8576040517f08c379a000000000000000000000000000000000000000000000000000000000815260040161169f90612f6c565b60405180910390fd5b50505050565b60606116b9826111eb565b6116f8576040517f08c379a00000000000000000000000000000000000000000000000000000000081526004016116ef90612ffe565b60405180910390fd5b600060066000848152602001908152602001600020805461171890612665565b80601f016020809104026020016040519081016040528092919081815260200182805461174490612665565b80156117915780601f1061176657610100808354040283529160200191611791565b820191906000526020600020905b81548152906001019060200180831161177457829003601f168201915b5050505050905060006117a2611a52565b90506000815114156117b85781925050506117fb565b6000825111156117ed5780826040516020016117d592919061305a565b604051602081830303815290604052925050506117fb565b6117f684611a8f565b925050505b919050565b600081600001549050919050565b6001816000016000828254019250508190555050565b61183e828260405180602001604052806000815250611b36565b5050565b61184b826111eb565b61188a576040517f08c379a0000000000000000000000000000000000000000000000000000000008152600401611881906130f0565b60405180910390fd5b806006600084815260200190815260200160002090805190602001906118b1929190611ed3565b505050565b505050565b60006118dc8473ffffffffffffffffffffffffffffffffffffffff16611b91565b15611a45578373ffffffffffffffffffffffffffffffffffffffff1663150b7a02611905611257565b8786866040518563ffffffff1660e01b81526004016119279493929190613165565b602060405180830381600087803b15801561194157600080fd5b505af192505050801561197257506040513d601f19601f8201168201806040525081019061196f91906131c6565b60015b6119f5573d80600081146119a2576040519150601f19603f3d011682016040523d82523d6000602084013e6119a7565b606091505b506000815114156119ed576040517f08c379a00000000000000000000000000000000000000000000000000000000081526004016119e490612f6c565b60405180910390fd5b805181602001fd5b63150b7a0260e01b7bffffffffffffffffffffffffffffffffffffffffffffffffffffffff1916817bffffffffffffffffffffffffffffffffffffffffffffffffffffffff191614915050611a4a565b600190505b949350505050565b60606040518060400160405280601581526020017f68747470733a2f2f697066732e696f2f697066732f0000000000000000000000815250905090565b6060611a9a826111eb565b611ad9576040517f08c379a0000000000000000000000000000000000000000000000000000000008152600401611ad090613265565b60405180910390fd5b6000611ae3611a52565b90506000815111611b035760405180602001604052806000815250611b2e565b80611b0d84611ba4565b604051602001611b1e92919061305a565b6040516020818303038152906040525b915050919050565b611b408383611d05565b611b4d60008484846118bb565b611b8c576040517f08c379a0000000000000000000000000000000000000000000000000000000008152600401611b8390612f6c565b60405180910390fd5b505050565b600080823b905060008111915050919050565b60606000821415611bec576040518060400160405280600181526020017f30000000000000000000000000000000000000000000000000000000000000008152509050611d00565b600082905060005b60008214611c1e578080611c0790613285565b915050600a82611c1791906132fd565b9150611bf4565b60008167ffffffffffffffff811115611c3a57611c3961234b565b5b6040519080825280601f01601f191660200182016040528015611c6c5781602001600182028036833780820191505090505b5090505b60008514611cf957600182611c859190612e70565b9150600a85611c94919061332e565b6030611ca09190612ea4565b60f81b818381518110611cb657611cb561335f565b5b60200101907effffffffffffffffffffffffffffffffffffffffffffffffffffffffffffff1916908160001a905350600a85611cf291906132fd565b9450611c70565b8093505050505b919050565b600073ffffffffffffffffffffffffffffffffffffffff168273ffffffffffffffffffffffffffffffffffffffff161415611d75576040517f08c379a0000000000000000000000000000000000000000000000000000000008152600401611d6c906133da565b60405180910390fd5b611d7e816111eb565b15611dbe576040517f08c379a0000000000000000000000000000000000000000000000000000000008152600401611db590613446565b60405180910390fd5b611dca600083836118b6565b6001600360008473ffffffffffffffffffffffffffffffffffffffff1673ffffffffffffffffffffffffffffffffffffffff1681526020019081526020016000206000828254611e1a9190612ea4565b92505081905550816002600083815260200190815260200160002060006101000a81548173ffffffffffffffffffffffffffffffffffffffff021916908373ffffffffffffffffffffffffffffffffffffffff160217905550808273ffffffffffffffffffffffffffffffffffffffff16600073ffffffffffffffffffffffffffffffffffffffff167fddf252ad1be2c89b69c2b068fc378daa952ba7f163c4a11628f55a4df523b3ef60405160405180910390a45050565b828054611edf90612665565b90600052602060002090601f016020900481019282611f015760008555611f48565b82601f10611f1a57805160ff1916838001178555611f48565b82800160010185558215611f48579182015b82811115611f47578251825591602001919060010190611f2c565b5b509050611f559190611f59565b5090565b5b80821115611f72576000816000905550600101611f5a565b5090565b6000604051905090565b600080fd5b600080fd5b60007fffffffff0000000000000000000000000000000000000000000000000000000082169050919050565b611fbf81611f8a565b8114611fca57600080fd5b50565b600081359050611fdc81611fb6565b92915050565b600060208284031215611ff857611ff7611f80565b5b600061200684828501611fcd565b91505092915050565b60008115159050919050565b6120248161200f565b82525050565b600060208201905061203f600083018461201b565b92915050565b600081519050919050565b600082825260208201905092915050565b60005b8381101561207f578082015181840152602081019050612064565b8381111561208e576000848401525b50505050565b6000601f19601f8301169050919050565b60006120b082612045565b6120ba8185612050565b93506120ca818560208601612061565b6120d381612094565b840191505092915050565b600060208201905081810360008301526120f881846120a5565b905092915050565b6000819050919050565b61211381612100565b811461211e57600080fd5b50565b6000813590506121308161210a565b92915050565b60006020828403121561214c5761214b611f80565b5b600061215a84828501612121565b91505092915050565b600073ffffffffffffffffffffffffffffffffffffffff82169050919050565b600061218e82612163565b9050919050565b61219e81612183565b82525050565b60006020820190506121b96000830184612195565b92915050565b6121c881612183565b81146121d357600080fd5b50565b6000813590506121e5816121bf565b92915050565b6000806040838503121561220257612201611f80565b5b6000612210858286016121d6565b925050602061222185828601612121565b9150509250929050565b60008060006060848603121561224457612243611f80565b5b6000612252868287016121d6565b9350506020612263868287016121d6565b925050604061227486828701612121565b9150509250925092565b60006020828403121561229457612293611f80565b5b60006122a2848285016121d6565b91505092915050565b6122b481612100565b82525050565b60006020820190506122cf60008301846122ab565b92915050565b6122de8161200f565b81146122e957600080fd5b50565b6000813590506122fb816122d5565b92915050565b6000806040838503121561231857612317611f80565b5b6000612326858286016121d6565b9250506020612337858286016122ec565b9150509250929050565b600080fd5b600080fd5b7f4e487b7100000000000000000000000000000000000000000000000000000000600052604160045260246000fd5b61238382612094565b810181811067ffffffffffffffff821117156123a2576123a161234b565b5b80604052505050565b60006123b5611f76565b90506123c1828261237a565b919050565b600067ffffffffffffffff8211156123e1576123e061234b565b5b6123ea82612094565b9050602081019050919050565b82818337600083830152505050565b6000612419612414846123c6565b6123ab565b90508281526020810184848401111561243557612434612346565b5b6124408482856123f7565b509392505050565b600082601f83011261245d5761245c612341565b5b813561246d848260208601612406565b91505092915050565b600080600080608085870312156124905761248f611f80565b5b600061249e878288016121d6565b94505060206124af878288016121d6565b93505060406124c087828801612121565b925050606085013567ffffffffffffffff8111156124e1576124e0611f85565b5b6124ed87828801612448565b91505092959194509250565b600067ffffffffffffffff8211156125145761251361234b565b5b61251d82612094565b9050602081019050919050565b600061253d612538846124f9565b6123ab565b90508281526020810184848401111561255957612558612346565b5b6125648482856123f7565b509392505050565b600082601f83011261258157612580612341565b5b813561259184826020860161252a565b91505092915050565b600080604083850312156125b1576125b0611f80565b5b60006125bf858286016121d6565b925050602083013567ffffffffffffffff8111156125e0576125df611f85565b5b6125ec8582860161256c565b9150509250929050565b6000806040838503121561260d5761260c611f80565b5b600061261b858286016121d6565b925050602061262c858286016121d6565b9150509250929050565b7f4e487b7100000000000000000000000000000000000000000000000000000000600052602260045260246000fd5b6000600282049050600182168061267d57607f821691505b6020821081141561269157612690612636565b5b50919050565b7f4552433732313a20617070726f76656420717565727920666f72206e6f6e657860008201527f697374656e7420746f6b656e0000000000000000000000000000000000000000602082015250565b60006126f3602c83612050565b91506126fe82612697565b604082019050919050565b60006020820190508181036000830152612722816126e6565b9050919050565b7f4552433732313a20617070726f76616c20746f2063757272656e74206f776e6560008201527f7200000000000000000000000000000000000000000000000000000000000000602082015250565b6000612785602183612050565b915061279082612729565b604082019050919050565b600060208201905081810360008301526127b481612778565b9050919050565b7f4552433732313a20617070726f76652063616c6c6572206973206e6f74206f7760008201527f6e6572206e6f7220617070726f76656420666f7220616c6c0000000000000000602082015250565b6000612817603883612050565b9150612822826127bb565b604082019050919050565b600060208201905081810360008301526128468161280a565b9050919050565b7f4552433732313a207472616e736665722063616c6c6572206973206e6f74206f60008201527f776e6572206e6f7220617070726f766564000000000000000000000000000000602082015250565b60006128a9603183612050565b91506128b48261284d565b604082019050919050565b600060208201905081810360008301526128d88161289c565b9050919050565b7f4f6e6c79206f776e65722063616e207769746864726177000000000000000000600082015250565b6000612915601783612050565b9150612920826128df565b602082019050919050565b6000602082019050818103600083015261294481612908565b9050919050565b600081905092915050565b50565b600061296660008361294b565b915061297182612956565b600082019050919050565b600061298782612959565b9150819050919050565b7f5769746864726177616c206661696c6564000000000000000000000000000000600082015250565b60006129c7601183612050565b91506129d282612991565b602082019050919050565b600060208201905081810360008301526129f6816129ba565b9050919050565b7f4552433732313a206f776e657220717565727920666f72206e6f6e657869737460008201527f656e7420746f6b656e0000000000000000000000000000000000000000000000602082015250565b6000612a59602983612050565b9150612a64826129fd565b604082019050919050565b60006020820190508181036000830152612a8881612a4c565b9050919050565b7f4552433732313a2062616c616e636520717565727920666f7220746865207a6560008201527f726f206164647265737300000000000000000000000000000000000000000000602082015250565b6000612aeb602a83612050565b9150612af682612a8f565b604082019050919050565b60006020820190508181036000830152612b1a81612ade565b9050919050565b7f706179206174206c6561737420302e3030312065746820746f207369676e207560008201527f702061732061206d696e74657200000000000000000000000000000000000000602082015250565b6000612b7d602d83612050565b9150612b8882612b21565b604082019050919050565b60006020820190508181036000830152612bac81612b70565b9050919050565b7f4552433732313a20617070726f766520746f2063616c6c657200000000000000600082015250565b6000612be9601983612050565b9150612bf482612bb3565b602082019050919050565b60006020820190508181036000830152612c1881612bdc565b9050919050565b7f4f6e6c79206d696e7465722063616e206d696e7420746f6b656e730000000000600082015250565b6000612c55601b83612050565b9150612c6082612c1f565b602082019050919050565b60006020820190508181036000830152612c8481612c48565b9050919050565b7f4552433732313a206f70657261746f7220717565727920666f72206e6f6e657860008201527f697374656e7420746f6b656e0000000000000000000000000000000000000000602082015250565b6000612ce7602c83612050565b9150612cf282612c8b565b604082019050919050565b60006020820190508181036000830152612d1681612cda565b9050919050565b7f4552433732313a207472616e73666572206f6620746f6b656e2074686174206960008201527f73206e6f74206f776e0000000000000000000000000000000000000000000000602082015250565b6000612d79602983612050565b9150612d8482612d1d565b604082019050919050565b60006020820190508181036000830152612da881612d6c565b9050919050565b7f4552433732313a207472616e7366657220746f20746865207a65726f2061646460008201527f7265737300000000000000000000000000000000000000000000000000000000602082015250565b6000612e0b602483612050565b9150612e1682612daf565b604082019050919050565b60006020820190508181036000830152612e3a81612dfe565b9050919050565b7f4e487b7100000000000000000000000000000000000000000000000000000000600052601160045260246000fd5b6000612e7b82612100565b9150612e8683612100565b925082821015612e9957612e98612e41565b5b828203905092915050565b6000612eaf82612100565b9150612eba83612100565b9250827fffffffffffffffffffffffffffffffffffffffffffffffffffffffffffffffff03821115612eef57612eee612e41565b5b828201905092915050565b7f4552433732313a207472616e7366657220746f206e6f6e20455243373231526560008201527f63656976657220696d706c656d656e7465720000000000000000000000000000602082015250565b6000612f56603283612050565b9150612f6182612efa565b604082019050919050565b60006020820190508181036000830152612f8581612f49565b9050919050565b7f45524337323155524953746f726167653a2055524920717565727920666f722060008201527f6e6f6e6578697374656e7420746f6b656e000000000000000000000000000000602082015250565b6000612fe8603183612050565b9150612ff382612f8c565b604082019050919050565b6000602082019050818103600083015261301781612fdb565b9050919050565b600081905092915050565b600061303482612045565b61303e818561301e565b935061304e818560208601612061565b80840191505092915050565b60006130668285613029565b91506130728284613029565b91508190509392505050565b7f45524337323155524953746f726167653a2055524920736574206f66206e6f6e60008201527f6578697374656e7420746f6b656e000000000000000000000000000000000000602082015250565b60006130da602e83612050565b91506130e58261307e565b604082019050919050565b60006020820190508181036000830152613109816130cd565b9050919050565b600081519050919050565b600082825260208201905092915050565b600061313782613110565b613141818561311b565b9350613151818560208601612061565b61315a81612094565b840191505092915050565b600060808201905061317a6000830187612195565b6131876020830186612195565b61319460408301856122ab565b81810360608301526131a6818461312c565b905095945050505050565b6000815190506131c081611fb6565b92915050565b6000602082840312156131dc576131db611f80565b5b60006131ea848285016131b1565b91505092915050565b7f4552433732314d657461646174613a2055524920717565727920666f72206e6f60008201527f6e6578697374656e7420746f6b656e0000000000000000000000000000000000602082015250565b600061324f602f83612050565b915061325a826131f3565b604082019050919050565b6000602082019050818103600083015261327e81613242565b9050919050565b600061329082612100565b91507fffffffffffffffffffffffffffffffffffffffffffffffffffffffffffffffff8214156132c3576132c2612e41565b5b600182019050919050565b7f4e487b7100000000000000000000000000000000000000000000000000000000600052601260045260246000fd5b600061330882612100565b915061331383612100565b925082613323576133226132ce565b5b828204905092915050565b600061333982612100565b915061334483612100565b925082613354576133536132ce565b5b828206905092915050565b7f4e487b7100000000000000000000000000000000000000000000000000000000600052603260045260246000fd5b7f4552433732313a206d696e7420746f20746865207a65726f2061646472657373600082015250565b60006133c4602083612050565b91506133cf8261338e565b602082019050919050565b600060208201905081810360008301526133f3816133b7565b9050919050565b7f4552433732313a20746f6b656e20616c7265616479206d696e74656400000000600082015250565b6000613430601c83612050565b915061343b826133fa565b602082019050919050565b6000602082019050818103600083015261345f81613423565b905091905056fea2646970667358221220c58b56d3bc8e98b0b6df2292ce50edcd342ed58f6d8d793a68ca0b30ec43d51164736f6c63430008090033",
  "immutableReferences": {},
  "source": "// SPDX-License-Identifier: MIT\npragma solidity ^0.8.2;\n\nimport \"@openzeppelin/contracts/token/ERC721/ERC721.sol\";\nimport \"@openzeppelin/contracts/token/ERC721/extensions/ERC721URIStorage.sol\";\nimport \"@openzeppelin/contracts/utils/Counters.sol\";\n\ncontract RecogToken is ERC721, ERC721URIStorage {\n    using Counters for Counters.Counter;\n    Counters.Counter private _tokenIdCounter;\n\n    address owner = msg.sender;\n\n    // Set a role for minter\n    mapping(address => bool) public minterRole;\n\n    function getMinterRole(address _account) public view returns (bool) {\n        return minterRole[_account];\n    }\n\n    //function to add a new minter, with paying 0.001 ether\n    function addMinter(address _minter) public payable {\n        require(msg.value >= 1000000000000000, \"pay at least 0.001 eth to sign up as a minter\");\n        require(_minter != address(0));\n        require(minterRole[_minter] == false);\n        minterRole[_minter] = true;\n    }\n\n    //function to remove a minter\n    function removeMinter(address _minter) public {\n        require(_minter != address(0));\n        require(minterRole[_minter] == true);\n        minterRole[_minter] = false;\n    }\n\n    function _baseURI() internal pure override returns (string memory) {\n        return \"https://ipfs.io/ipfs/\";\n    }\n\n    constructor() ERC721(\"RecogToken\", \"RCT\") {}\n        // minterRole[owner] = true;\n    \n\n    function safeMint(address to, string memory uri) public {\n        require( minterRole[to], \"Only minter can mint tokens\" );\n        uint256 tokenId = _tokenIdCounter.current();\n        _tokenIdCounter.increment();\n        _safeMint(to, tokenId);\n        _setTokenURI(tokenId, uri);\n    }\n\n    // Function to withdraw ether from contract address\n    function withdraw() public {\n        require(msg.sender == owner, \"Only owner can withdraw\");\n        (bool success, ) = owner.call{value: address(this).balance}(\"\");\n        require(success, \"Withdrawal failed\");\n    }\n\n        // The following functions are overrides required by Solidity.\n\n    function _burn(uint256 tokenId) internal override(ERC721, ERC721URIStorage) {\n        super._burn(tokenId);\n    }\n\n    function tokenURI(uint256 tokenId)\n        public\n        view\n        override(ERC721, ERC721URIStorage)\n        returns (string memory)\n    {\n        return super.tokenURI(tokenId);\n    }\n}",
  "sourcePath": "/Users/lukeyounge/Sites/tokenmint-ipfs/contracts/RecogToken.sol",
  "compiler": {
    "name": "solc",
    "version": "0.8.9+commit.e5eed63a.Emscripten.clang"
  },
  "schemaVersion": "3.4.3",
  "updatedAt": "2021-11-26T07:00:30.301Z",
  "networkType": "ethereum",
  "devdoc": {
    "kind": "dev",
    "methods": {
      "approve(address,uint256)": {
        "details": "See {IERC721-approve}."
      },
      "balanceOf(address)": {
        "details": "See {IERC721-balanceOf}."
      },
      "getApproved(uint256)": {
        "details": "See {IERC721-getApproved}."
      },
      "isApprovedForAll(address,address)": {
        "details": "See {IERC721-isApprovedForAll}."
      },
      "name()": {
        "details": "See {IERC721Metadata-name}."
      },
      "ownerOf(uint256)": {
        "details": "See {IERC721-ownerOf}."
      },
      "safeTransferFrom(address,address,uint256)": {
        "details": "See {IERC721-safeTransferFrom}."
      },
      "safeTransferFrom(address,address,uint256,bytes)": {
        "details": "See {IERC721-safeTransferFrom}."
      },
      "setApprovalForAll(address,bool)": {
        "details": "See {IERC721-setApprovalForAll}."
      },
      "supportsInterface(bytes4)": {
        "details": "See {IERC165-supportsInterface}."
      },
      "symbol()": {
        "details": "See {IERC721Metadata-symbol}."
      },
      "transferFrom(address,address,uint256)": {
        "details": "See {IERC721-transferFrom}."
      }
    },
    "version": 1
  },
  "userdoc": {
    "kind": "user",
    "methods": {},
    "version": 1
  }
}